{"abi":[{"type":"constructor","inputs":[{"name":"_wvtt","type":"address","internalType":"address"},{"name":"_usdt","type":"address","internalType":"address"},{"name":"_relayer","type":"address","internalType":"address"},{"name":"_feeBps","type":"uint256","internalType":"uint256"}],"stateMutability":"nonpayable"},{"type":"function","name":"collectedFees","inputs":[],"outputs":[{"name":"","type":"uint256","internalType":"uint256"}],"stateMutability":"view"},{"type":"function","name":"depositNonce","inputs":[],"outputs":[{"name":"","type":"uint256","internalType":"uint256"}],"stateMutability":"view"},{"type":"function","name":"depositUSDT","inputs":[{"name":"amount","type":"uint256","internalType":"uint256"},{"name":"vttDestination","type":"bytes32","internalType":"bytes32"}],"outputs":[],"stateMutability":"nonpayable"},{"type":"function","name":"depositWVTT","inputs":[{"name":"amount","type":"uint256","internalType":"uint256"},{"name":"vttDestination","type":"bytes32","internalType":"bytes32"}],"outputs":[],"stateMutability":"nonpayable"},{"type":"function","name":"owner","inputs":[],"outputs":[{"name":"","type":"address","internalType":"address"}],"stateMutability":"view"},{"type":"function","name":"processedWithdrawals","inputs":[{"name":"","type":"bytes32","internalType":"bytes32"}],"outputs":[{"name":"","type":"bool","internalType":"bool"}],"stateMutability":"view"},{"type":"function","name":"protocolFeeBps","inputs":[],"outputs":[{"name":"","type":"uint256","internalType":"uint256"}],"stateMutability":"view"},{"type":"function","name":"relayer","inputs":[],"outputs":[{"name":"","type":"address","internalType":"address"}],"stateMutability":"view"},{"type":"function","name":"releaseUSDT","inputs":[{"name":"vttTxHash","type":"bytes32","internalType":"bytes32"},{"name":"recipient","type":"address","internalType":"address"},{"name":"amount","type":"uint256","internalType":"uint256"}],"outputs":[],"stateMutability":"nonpayable"},{"type":"function","name":"releaseWVTT","inputs":[{"name":"vttTxHash","type":"bytes32","internalType":"bytes32"},{"name":"recipient","type":"address","internalType":"address"},{"name":"amount","type":"uint256","internalType":"uint256"}],"outputs":[],"stateMutability":"nonpayable"},{"type":"function","name":"setFee","inputs":[{"name":"_feeBps","type":"uint256","internalType":"uint256"}],"outputs":[],"stateMutability":"nonpayable"},{"type":"function","name":"setRelayer","inputs":[{"name":"_relayer","type":"address","internalType":"address"}],"outputs":[],"stateMutability":"nonpayable"},{"type":"function","name":"transferOwnership","inputs":[{"name":"newOwner","type":"address","internalType":"address"}],"outputs":[],"stateMutability":"nonpayable"},{"type":"function","name":"usdt","inputs":[],"outputs":[{"name":"","type":"address","internalType":"contract IERC20"}],"stateMutability":"view"},{"type":"function","name":"withdrawFees","inputs":[{"name":"to","type":"address","internalType":"address"}],"outputs":[],"stateMutability":"nonpayable"},{"type":"function","name":"wvtt","inputs":[],"outputs":[{"name":"","type":"address","internalType":"contract WVTT"}],"stateMutability":"view"},{"type":"event","name":"Deposit","inputs":[{"name":"nonce","type":"uint256","indexed":true,"internalType":"uint256"},{"name":"sender","type":"address","indexed":true,"internalType":"address"},{"name":"token","type":"address","indexed":false,"internalType":"address"},{"name":"amount","type":"uint256","indexed":false,"internalType":"uint256"},{"name":"fee","type":"uint256","indexed":false,"internalType":"uint256"},{"name":"vttDestination","type":"bytes32","indexed":false,"internalType":"bytes32"}],"anonymous":false},{"type":"event","name":"FeeUpdated","inputs":[{"name":"oldFee","type":"uint256","indexed":false,"internalType":"uint256"},{"name":"newFee","type":"uint256","indexed":false,"internalType":"uint256"}],"anonymous":false},{"type":"event","name":"FeesWithdrawn","inputs":[{"name":"to","type":"address","indexed":true,"internalType":"address"},{"name":"amount","type":"uint256","indexed":false,"internalType":"uint256"}],"anonymous":false},{"type":"event","name":"RelayerUpdated","inputs":[{"name":"oldRelayer","type":"address","indexed":true,"internalType":"address"},{"name":"newRelayer","type":"address","indexed":true,"internalType":"address"}],"anonymous":false},{"type":"event","name":"Release","inputs":[{"name":"vttTxHash","type":"bytes32","indexed":true,"internalType":"bytes32"},{"name":"recipient","type":"address","indexed":true,"internalType":"address"},{"name":"token","type":"address","indexed":false,"internalType":"address"},{"name":"amount","type":"uint256","indexed":false,"internalType":"uint256"}],"anonymous":false}],"bytecode":{"object":"0x60c060405234801561000f575f5ffd5b50604051611f16380380611f16833981810160405281019061003191906101b9565b8373ffffffffffffffffffffffffffffffffffffffff1660808173ffffffffffffffffffffffffffffffffffffffff16815250508273ffffffffffffffffffffffffffffffffffffffff1660a08173ffffffffffffffffffffffffffffffffffffffff1681525050815f5f6101000a81548173ffffffffffffffffffffffffffffffffffffffff021916908373ffffffffffffffffffffffffffffffffffffffff1602179055503360015f6101000a81548173ffffffffffffffffffffffffffffffffffffffff021916908373ffffffffffffffffffffffffffffffffffffffff160217905550806002819055505050505061021d565b5f5ffd5b5f73ffffffffffffffffffffffffffffffffffffffff82169050919050565b5f6101558261012c565b9050919050565b6101658161014b565b811461016f575f5ffd5b50565b5f815190506101808161015c565b92915050565b5f819050919050565b61019881610186565b81146101a2575f5ffd5b50565b5f815190506101b38161018f565b92915050565b5f5f5f5f608085870312156101d1576101d0610128565b5b5f6101de87828801610172565b94505060206101ef87828801610172565b935050604061020087828801610172565b9250506060610211878288016101a5565b91505092959194509250565b60805160a051611c926102845f395f818161038d0152818161042d01528181610647015281816107490152818161085c015281816108bd01528181610fa801526110f701525f8181610899015281816109fc01528181610abd0152610b690152611c925ff3fe608060405234801561000f575f5ffd5b50600436106100fe575f3560e01c806369fe0e2d11610095578063958ac21011610064578063958ac2101461025e578063bf49d6311461027a578063de35f5cb146102aa578063f2fde38b146102c8576100fe565b806369fe0e2d146101e85780638406c079146102045780638da5cb5b146102225780639003adfe14610240576100fe565b806335659fb8116100d157806335659fb8146101765780633f0fc48b146101945780635a083564146101b05780636548e9bc146101cc576100fe565b8063164e68de146101025780631a0517ff1461011e57806329aec6261461013a5780632f48ab7d14610158575b5f5ffd5b61011c600480360381019061011791906112f8565b6102e4565b005b61013860048036038101906101339190611389565b610558565b005b610142610897565b60405161014f9190611434565b60405180910390f35b6101606108bb565b60405161016d919061146d565b60405180910390f35b61017e6108df565b60405161018b9190611495565b60405180910390f35b6101ae60048036038101906101a99190611389565b6108e5565b005b6101ca60048036038101906101c591906114ae565b610af8565b005b6101e660048036038101906101e191906112f8565b610c84565b005b61020260048036038101906101fd91906114ec565b610dcf565b005b61020c610ee8565b6040516102199190611526565b60405180910390f35b61022a610f0c565b6040516102379190611526565b60405180910390f35b610248610f31565b6040516102559190611495565b60405180910390f35b610278600480360381019061027391906114ae565b610f37565b005b610294600480360381019061028f919061153f565b611137565b6040516102a19190611584565b60405180910390f35b6102b2611154565b6040516102bf9190611495565b60405180910390f35b6102e260048036038101906102dd91906112f8565b61115a565b005b60015f9054906101000a900473ffffffffffffffffffffffffffffffffffffffff1673ffffffffffffffffffffffffffffffffffffffff163373ffffffffffffffffffffffffffffffffffffffff1614610373576040517f08c379a000000000000000000000000000000000000000000000000000000000815260040161036a906115f7565b60405180910390fd5b5f60035490505f6003819055505f811180156104265750807f000000000000000000000000000000000000000000000000000000000000000073ffffffffffffffffffffffffffffffffffffffff166370a08231306040518263ffffffff1660e01b81526004016103e49190611526565b602060405180830381865afa1580156103ff573d5f5f3e3d5ffd5b505050506040513d601f19601f820116820180604052508101906104239190611629565b10155b15610506577f000000000000000000000000000000000000000000000000000000000000000073ffffffffffffffffffffffffffffffffffffffff1663a9059cbb83836040518363ffffffff1660e01b8152600401610486929190611654565b6020604051808303815f875af11580156104a2573d5f5f3e3d5ffd5b505050506040513d601f19601f820116820180604052508101906104c691906116a5565b610505576040517f08c379a00000000000000000000000000000000000000000000000000000000081526004016104fc9061171a565b60405180910390fd5b5b8173ffffffffffffffffffffffffffffffffffffffff167fc0819c13be868895eb93e40eaceb96de976442fa1d404e5c55f14bb65a8c489a8260405161054c9190611495565b60405180910390a25050565b5f5f9054906101000a900473ffffffffffffffffffffffffffffffffffffffff1673ffffffffffffffffffffffffffffffffffffffff163373ffffffffffffffffffffffffffffffffffffffff16146105e6576040517f08c379a00000000000000000000000000000000000000000000000000000000081526004016105dd90611782565b60405180910390fd5b60045f8481526020019081526020015f205f9054906101000a900460ff1615610644576040517f08c379a000000000000000000000000000000000000000000000000000000000815260040161063b906117ea565b60405180910390fd5b807f000000000000000000000000000000000000000000000000000000000000000073ffffffffffffffffffffffffffffffffffffffff166370a08231306040518263ffffffff1660e01b815260040161069e9190611526565b602060405180830381865afa1580156106b9573d5f5f3e3d5ffd5b505050506040513d601f19601f820116820180604052508101906106dd9190611629565b101561071e576040517f08c379a000000000000000000000000000000000000000000000000000000000815260040161071590611878565b60405180910390fd5b600160045f8581526020019081526020015f205f6101000a81548160ff0219169083151502179055507f000000000000000000000000000000000000000000000000000000000000000073ffffffffffffffffffffffffffffffffffffffff1663a9059cbb83836040518363ffffffff1660e01b81526004016107a2929190611654565b6020604051808303815f875af11580156107be573d5f5f3e3d5ffd5b505050506040513d601f19601f820116820180604052508101906107e291906116a5565b610821576040517f08c379a0000000000000000000000000000000000000000000000000000000008152600401610818906118e0565b60405180910390fd5b8173ffffffffffffffffffffffffffffffffffffffff16837f384442b72b4d48d5c8b13f459bb942f6a9ab07e7a5ef53e8018e4057c373e9447f00000000000000000000000000000000000000000000000000000000000000008460405161088a929190611654565b60405180910390a3505050565b7f000000000000000000000000000000000000000000000000000000000000000081565b7f000000000000000000000000000000000000000000000000000000000000000081565b60025481565b5f5f9054906101000a900473ffffffffffffffffffffffffffffffffffffffff1673ffffffffffffffffffffffffffffffffffffffff163373ffffffffffffffffffffffffffffffffffffffff1614610973576040517f08c379a000000000000000000000000000000000000000000000000000000000815260040161096a90611782565b60405180910390fd5b60045f8481526020019081526020015f205f9054906101000a900460ff16156109d1576040517f08c379a00000000000000000000000000000000000000000000000000000000081526004016109c8906117ea565b60405180910390fd5b600160045f8581526020019081526020015f205f6101000a81548160ff0219169083151502179055507f000000000000000000000000000000000000000000000000000000000000000073ffffffffffffffffffffffffffffffffffffffff166340c10f1983836040518363ffffffff1660e01b8152600401610a55929190611654565b5f604051808303815f87803b158015610a6c575f5ffd5b505af1158015610a7e573d5f5f3e3d5ffd5b505050508173ffffffffffffffffffffffffffffffffffffffff16837f384442b72b4d48d5c8b13f459bb942f6a9ab07e7a5ef53e8018e4057c373e9447f000000000000000000000000000000000000000000000000000000000000000084604051610aeb929190611654565b60405180910390a3505050565b5f8211610b3a576040517f08c379a0000000000000000000000000000000000000000000000000000000008152600401610b3190611948565b60405180910390fd5b5f61271060025484610b4c9190611993565b610b569190611a01565b90505f8184610b659190611a31565b90507f000000000000000000000000000000000000000000000000000000000000000073ffffffffffffffffffffffffffffffffffffffff16639dc29fac33866040518363ffffffff1660e01b8152600401610bc2929190611654565b5f604051808303815f87803b158015610bd9575f5ffd5b505af1158015610beb573d5f5f3e3d5ffd5b505050505f821115610c10578160035f828254610c089190611a64565b925050819055505b60055f815480929190610c2290611a97565b91905055503373ffffffffffffffffffffffffffffffffffffffff166005547f33d0ca41553e53e9483d72252657d69d101e74ef8be9c6e7320bebb127236f5e5f848688604051610c769493929190611aed565b60405180910390a350505050565b60015f9054906101000a900473ffffffffffffffffffffffffffffffffffffffff1673ffffffffffffffffffffffffffffffffffffffff163373ffffffffffffffffffffffffffffffffffffffff1614610d13576040517f08c379a0000000000000000000000000000000000000000000000000000000008152600401610d0a906115f7565b60405180910390fd5b8073ffffffffffffffffffffffffffffffffffffffff165f5f9054906101000a900473ffffffffffffffffffffffffffffffffffffffff1673ffffffffffffffffffffffffffffffffffffffff167f605ca4e43489fb38b91aa63dd9147cd3847957694b080b9285ec898b34269f0c60405160405180910390a3805f5f6101000a81548173ffffffffffffffffffffffffffffffffffffffff021916908373ffffffffffffffffffffffffffffffffffffffff16021790555050565b60015f9054906101000a900473ffffffffffffffffffffffffffffffffffffffff1673ffffffffffffffffffffffffffffffffffffffff163373ffffffffffffffffffffffffffffffffffffffff1614610e5e576040517f08c379a0000000000000000000000000000000000000000000000000000000008152600401610e55906115f7565b60405180910390fd5b6101f4811115610ea3576040517f08c379a0000000000000000000000000000000000000000000000000000000008152600401610e9a90611b7a565b60405180910390fd5b7f528d9479e9f9889a87a3c30c7f7ba537e5e59c4c85a37733b16e57c62df6130260025482604051610ed6929190611b98565b60405180910390a18060028190555050565b5f5f9054906101000a900473ffffffffffffffffffffffffffffffffffffffff1681565b60015f9054906101000a900473ffffffffffffffffffffffffffffffffffffffff1681565b60035481565b5f8211610f79576040517f08c379a0000000000000000000000000000000000000000000000000000000008152600401610f7090611948565b60405180910390fd5b5f61271060025484610f8b9190611993565b610f959190611a01565b90505f8184610fa49190611a31565b90507f000000000000000000000000000000000000000000000000000000000000000073ffffffffffffffffffffffffffffffffffffffff166323b872dd3330876040518463ffffffff1660e01b815260040161100393929190611bbf565b6020604051808303815f875af115801561101f573d5f5f3e3d5ffd5b505050506040513d601f19601f8201168201806040525081019061104391906116a5565b611082576040517f08c379a0000000000000000000000000000000000000000000000000000000008152600401611079906118e0565b60405180910390fd5b5f8211156110a3578160035f82825461109b9190611a64565b925050819055505b60055f8154809291906110b590611a97565b91905055503373ffffffffffffffffffffffffffffffffffffffff166005547f33d0ca41553e53e9483d72252657d69d101e74ef8be9c6e7320bebb127236f5e7f00000000000000000000000000000000000000000000000000000000000000008486886040516111299493929190611aed565b60405180910390a350505050565b6004602052805f5260405f205f915054906101000a900460ff1681565b60055481565b60015f9054906101000a900473ffffffffffffffffffffffffffffffffffffffff1673ffffffffffffffffffffffffffffffffffffffff163373ffffffffffffffffffffffffffffffffffffffff16146111e9576040517f08c379a00000000000000000000000000000000000000000000000000000000081526004016111e0906115f7565b60405180910390fd5b5f73ffffffffffffffffffffffffffffffffffffffff168173ffffffffffffffffffffffffffffffffffffffff1603611257576040517f08c379a000000000000000000000000000000000000000000000000000000000815260040161124e90611c3e565b60405180910390fd5b8060015f6101000a81548173ffffffffffffffffffffffffffffffffffffffff021916908373ffffffffffffffffffffffffffffffffffffffff16021790555050565b5f5ffd5b5f73ffffffffffffffffffffffffffffffffffffffff82169050919050565b5f6112c78261129e565b9050919050565b6112d7816112bd565b81146112e1575f5ffd5b50565b5f813590506112f2816112ce565b92915050565b5f6020828403121561130d5761130c61129a565b5b5f61131a848285016112e4565b91505092915050565b5f819050919050565b61133581611323565b811461133f575f5ffd5b50565b5f813590506113508161132c565b92915050565b5f819050919050565b61136881611356565b8114611372575f5ffd5b50565b5f813590506113838161135f565b92915050565b5f5f5f606084860312156113a05761139f61129a565b5b5f6113ad86828701611342565b93505060206113be868287016112e4565b92505060406113cf86828701611375565b9150509250925092565b5f819050919050565b5f6113fc6113f76113f28461129e565b6113d9565b61129e565b9050919050565b5f61140d826113e2565b9050919050565b5f61141e82611403565b9050919050565b61142e81611414565b82525050565b5f6020820190506114475f830184611425565b92915050565b5f61145782611403565b9050919050565b6114678161144d565b82525050565b5f6020820190506114805f83018461145e565b92915050565b61148f81611356565b82525050565b5f6020820190506114a85f830184611486565b92915050565b5f5f604083850312156114c4576114c361129a565b5b5f6114d185828601611375565b92505060206114e285828601611342565b9150509250929050565b5f602082840312156115015761150061129a565b5b5f61150e84828501611375565b91505092915050565b611520816112bd565b82525050565b5f6020820190506115395f830184611517565b92915050565b5f602082840312156115545761155361129a565b5b5f61156184828501611342565b91505092915050565b5f8115159050919050565b61157e8161156a565b82525050565b5f6020820190506115975f830184611575565b92915050565b5f82825260208201905092915050565b7f4272696467653a206e6f74206f776e65720000000000000000000000000000005f82015250565b5f6115e160118361159d565b91506115ec826115ad565b602082019050919050565b5f6020820190508181035f83015261160e816115d5565b9050919050565b5f815190506116238161135f565b92915050565b5f6020828403121561163e5761163d61129a565b5b5f61164b84828501611615565b91505092915050565b5f6040820190506116675f830185611517565b6116746020830184611486565b9392505050565b6116848161156a565b811461168e575f5ffd5b50565b5f8151905061169f8161167b565b92915050565b5f602082840312156116ba576116b961129a565b5b5f6116c784828501611691565b91505092915050565b7f4272696467653a20666565207769746864726177616c206661696c65640000005f82015250565b5f611704601d8361159d565b915061170f826116d0565b602082019050919050565b5f6020820190508181035f830152611731816116f8565b9050919050565b7f4272696467653a206e6f742072656c61796572000000000000000000000000005f82015250565b5f61176c60138361159d565b915061177782611738565b602082019050919050565b5f6020820190508181035f83015261179981611760565b9050919050565b7f4272696467653a20616c72656164792070726f636573736564000000000000005f82015250565b5f6117d460198361159d565b91506117df826117a0565b602082019050919050565b5f6020820190508181035f830152611801816117c8565b9050919050565b7f4272696467653a20696e73756666696369656e742055534454207265736572765f8201527f6500000000000000000000000000000000000000000000000000000000000000602082015250565b5f61186260218361159d565b915061186d82611808565b604082019050919050565b5f6020820190508181035f83015261188f81611856565b9050919050565b7f4272696467653a2055534454207472616e73666572206661696c6564000000005f82015250565b5f6118ca601c8361159d565b91506118d582611896565b602082019050919050565b5f6020820190508181035f8301526118f7816118be565b9050919050565b7f4272696467653a207a65726f20616d6f756e74000000000000000000000000005f82015250565b5f61193260138361159d565b915061193d826118fe565b602082019050919050565b5f6020820190508181035f83015261195f81611926565b9050919050565b7f4e487b71000000000000000000000000000000000000000000000000000000005f52601160045260245ffd5b5f61199d82611356565b91506119a883611356565b92508282026119b681611356565b915082820484148315176119cd576119cc611966565b5b5092915050565b7f4e487b71000000000000000000000000000000000000000000000000000000005f52601260045260245ffd5b5f611a0b82611356565b9150611a1683611356565b925082611a2657611a256119d4565b5b828204905092915050565b5f611a3b82611356565b9150611a4683611356565b9250828203905081811115611a5e57611a5d611966565b5b92915050565b5f611a6e82611356565b9150611a7983611356565b9250828201905080821115611a9157611a90611966565b5b92915050565b5f611aa182611356565b91507fffffffffffffffffffffffffffffffffffffffffffffffffffffffffffffffff8203611ad357611ad2611966565b5b600182019050919050565b611ae781611323565b82525050565b5f608082019050611b005f830187611517565b611b0d6020830186611486565b611b1a6040830185611486565b611b276060830184611ade565b95945050505050565b7f4272696467653a2066656520746f6f20686967680000000000000000000000005f82015250565b5f611b6460148361159d565b9150611b6f82611b30565b602082019050919050565b5f6020820190508181035f830152611b9181611b58565b9050919050565b5f604082019050611bab5f830185611486565b611bb86020830184611486565b9392505050565b5f606082019050611bd25f830186611517565b611bdf6020830185611517565b611bec6040830184611486565b949350505050565b7f4272696467653a207a65726f20616464726573730000000000000000000000005f82015250565b5f611c2860148361159d565b9150611c3382611bf4565b602082019050919050565b5f6020820190508181035f830152611c5581611c1c565b905091905056fea26469706673582212204a5492fcdd6212a24f6fc5ca6ab4445fc279d22d7ca4e4338d4b40e95388f4c464736f6c63430008210033","linkReferences":{}},"methodIdentifiers":{"collectedFees()":"9003adfe","depositNonce()":"de35f5cb","depositUSDT(uint256,bytes32)":"958ac210","depositWVTT(uint256,bytes32)":"5a083564","owner()":"8da5cb5b","processedWithdrawals(bytes32)":"bf49d631","protocolFeeBps()":"35659fb8","relayer()":"8406c079","releaseUSDT(bytes32,address,uint256)":"1a0517ff","releaseWVTT(bytes32,address,uint256)":"3f0fc48b","setFee(uint256)":"69fe0e2d","setRelayer(address)":"6548e9bc","transferOwnership(address)":"f2fde38b","usdt()":"2f48ab7d","withdrawFees(address)":"164e68de","wvtt()":"29aec626"},"id":21}