{"abi":[{"type":"constructor","inputs":[{"name":"_wvtt","type":"address","internalType":"address"},{"name":"_usdt","type":"address","internalType":"address"},{"name":"_relayer","type":"address","internalType":"address"},{"name":"_feeBps","type":"uint256","internalType":"uint256"}],"stateMutability":"nonpayable"},{"type":"function","name":"TIMELOCK_DELAY","inputs":[],"outputs":[{"name":"","type":"uint256","internalType":"uint256"}],"stateMutability":"view"},{"type":"function","name":"collectedFeesUSDT","inputs":[],"outputs":[{"name":"","type":"uint256","internalType":"uint256"}],"stateMutability":"view"},{"type":"function","name":"collectedFeesWVTT","inputs":[],"outputs":[{"name":"","type":"uint256","internalType":"uint256"}],"stateMutability":"view"},{"type":"function","name":"depositNonce","inputs":[],"outputs":[{"name":"","type":"uint256","internalType":"uint256"}],"stateMutability":"view"},{"type":"function","name":"depositUSDT","inputs":[{"name":"amount","type":"uint256","internalType":"uint256"},{"name":"vttDestination","type":"bytes32","internalType":"bytes32"}],"outputs":[],"stateMutability":"nonpayable"},{"type":"function","name":"depositWVTT","inputs":[{"name":"amount","type":"uint256","internalType":"uint256"},{"name":"vttDestination","type":"bytes32","internalType":"bytes32"}],"outputs":[],"stateMutability":"nonpayable"},{"type":"function","name":"executeSetRelayer","inputs":[{"name":"_relayer","type":"address","internalType":"address"}],"outputs":[],"stateMutability":"nonpayable"},{"type":"function","name":"owner","inputs":[],"outputs":[{"name":"","type":"address","internalType":"address"}],"stateMutability":"view"},{"type":"function","name":"pause","inputs":[],"outputs":[],"stateMutability":"nonpayable"},{"type":"function","name":"paused","inputs":[],"outputs":[{"name":"","type":"bool","internalType":"bool"}],"stateMutability":"view"},{"type":"function","name":"processedWithdrawals","inputs":[{"name":"","type":"bytes32","internalType":"bytes32"}],"outputs":[{"name":"","type":"bool","internalType":"bool"}],"stateMutability":"view"},{"type":"function","name":"protocolFeeBps","inputs":[],"outputs":[{"name":"","type":"uint256","internalType":"uint256"}],"stateMutability":"view"},{"type":"function","name":"queueSetRelayer","inputs":[{"name":"_relayer","type":"address","internalType":"address"}],"outputs":[],"stateMutability":"nonpayable"},{"type":"function","name":"relayer","inputs":[],"outputs":[{"name":"","type":"address","internalType":"address"}],"stateMutability":"view"},{"type":"function","name":"releaseUSDT","inputs":[{"name":"vttTxHash","type":"bytes32","internalType":"bytes32"},{"name":"recipient","type":"address","internalType":"address"},{"name":"amount","type":"uint256","internalType":"uint256"}],"outputs":[],"stateMutability":"nonpayable"},{"type":"function","name":"releaseWVTT","inputs":[{"name":"vttTxHash","type":"bytes32","internalType":"bytes32"},{"name":"recipient","type":"address","internalType":"address"},{"name":"amount","type":"uint256","internalType":"uint256"}],"outputs":[],"stateMutability":"nonpayable"},{"type":"function","name":"setFee","inputs":[{"name":"_feeBps","type":"uint256","internalType":"uint256"}],"outputs":[],"stateMutability":"nonpayable"},{"type":"function","name":"timelockActions","inputs":[{"name":"","type":"bytes32","internalType":"bytes32"}],"outputs":[{"name":"executeAfter","type":"uint256","internalType":"uint256"},{"name":"executed","type":"bool","internalType":"bool"}],"stateMutability":"view"},{"type":"function","name":"transferOwnership","inputs":[{"name":"newOwner","type":"address","internalType":"address"}],"outputs":[],"stateMutability":"nonpayable"},{"type":"function","name":"unpause","inputs":[],"outputs":[],"stateMutability":"nonpayable"},{"type":"function","name":"usdt","inputs":[],"outputs":[{"name":"","type":"address","internalType":"contract IERC20"}],"stateMutability":"view"},{"type":"function","name":"withdrawFees","inputs":[{"name":"to","type":"address","internalType":"address"}],"outputs":[],"stateMutability":"nonpayable"},{"type":"function","name":"wvtt","inputs":[],"outputs":[{"name":"","type":"address","internalType":"contract WVTT"}],"stateMutability":"view"},{"type":"event","name":"Deposit","inputs":[{"name":"nonce","type":"uint256","indexed":true,"internalType":"uint256"},{"name":"sender","type":"address","indexed":true,"internalType":"address"},{"name":"token","type":"address","indexed":false,"internalType":"address"},{"name":"amount","type":"uint256","indexed":false,"internalType":"uint256"},{"name":"fee","type":"uint256","indexed":false,"internalType":"uint256"},{"name":"vttDestination","type":"bytes32","indexed":false,"internalType":"bytes32"}],"anonymous":false},{"type":"event","name":"FeeUpdated","inputs":[{"name":"oldFee","type":"uint256","indexed":false,"internalType":"uint256"},{"name":"newFee","type":"uint256","indexed":false,"internalType":"uint256"}],"anonymous":false},{"type":"event","name":"FeesWithdrawn","inputs":[{"name":"to","type":"address","indexed":true,"internalType":"address"},{"name":"wvttAmount","type":"uint256","indexed":false,"internalType":"uint256"},{"name":"usdtAmount","type":"uint256","indexed":false,"internalType":"uint256"}],"anonymous":false},{"type":"event","name":"Paused","inputs":[{"name":"by","type":"address","indexed":true,"internalType":"address"}],"anonymous":false},{"type":"event","name":"RelayerUpdated","inputs":[{"name":"newRelayer","type":"address","indexed":true,"internalType":"address"}],"anonymous":false},{"type":"event","name":"Release","inputs":[{"name":"vttTxHash","type":"bytes32","indexed":true,"internalType":"bytes32"},{"name":"recipient","type":"address","indexed":true,"internalType":"address"},{"name":"token","type":"address","indexed":false,"internalType":"address"},{"name":"amount","type":"uint256","indexed":false,"internalType":"uint256"}],"anonymous":false},{"type":"event","name":"TimelockExecuted","inputs":[{"name":"actionHash","type":"bytes32","indexed":true,"internalType":"bytes32"}],"anonymous":false},{"type":"event","name":"TimelockQueued","inputs":[{"name":"actionHash","type":"bytes32","indexed":true,"internalType":"bytes32"},{"name":"executeAfter","type":"uint256","indexed":false,"internalType":"uint256"}],"anonymous":false},{"type":"event","name":"Unpaused","inputs":[{"name":"by","type":"address","indexed":true,"internalType":"address"}],"anonymous":false}],"bytecode":{"object":"0x60c0346100ec57601f6112d238819003918201601f19168301916001600160401b038311848410176100f0578084926080946040528339810103126100ec5761004781610104565b9061005460208201610104565b606061006260408401610104565b9201516001600160a01b0393841660805290831660a0525f80546001600160a01b0319908116949093169390931790925560018054909116331790556002556040516111b99081610119823960805181818161066b0152818161083c015281816109c00152610dcd015260a0518181816102170152818161097b01528181610b260152610d4f0152f35b5f80fd5b634e487b7160e01b5f52604160045260245ffd5b51906001600160a01b03821682036100ec5756fe60806040526004361015610011575f80fd5b5f5f3560e01c8063164e68de14610c995780631a0517ff14610ad75780632155ba3d146109ef57806329aec626146109aa5780632f48ab7d1461096557806335659fb81461094757806338fd717d146109295780633af586e61461090b5780633f0fc48b146107e95780633f4ba83a1461079e5780634afb48d6146107655780635a0835641461062a5780635ba1c1a91461060c5780635c82eda5146104665780635c975abb1461044357806369fe0e2d146103a95780638406c079146103825780638456cb59146103345780638da5cb5b1461030b578063958ac210146101b7578063bf49d63114610188578063de35f5cb1461016a5763f2fde38b14610117575f80fd5b3461016757602036600319011261016757610130610e62565b6101386110a6565b6001600160a01b031661014c811515610eb8565b6bffffffffffffffffffffffff60a01b600154161760015580f35b80fd5b50346101675780600319360112610167576020600754604051908152f35b50346101675760203660031901126101675760ff60406020926004358152600684522054166040519015158152f35b5034610167576101c636610ea2565b6101ce611141565b6101d9821515611036565b6127106101e860025484611078565b04906101f4828461108b565b6040516323b872dd60e01b815233600482015230602482015260448101949094527f00000000000000000000000000000000000000000000000000000000000000006001600160a01b03169390929060208160648189895af18015610300576102649187916102d1575b50610f49565b806102bd575b610275600754611098565b92836007556040519485526020850152604084015260608301527f33d0ca41553e53e9483d72252657d69d101e74ef8be9c6e7320bebb127236f5e339260808180030190a380f35b6102c981600454611015565b60045561026a565b6102f3915060203d6020116102f9575b6102eb8183610efb565b810190610f31565b5f61025e565b503d6102e1565b6040513d88823e3d90fd5b50346101675780600319360112610167576001546040516001600160a01b039091168152602090f35b503461016757806003193601126101675761034d6110a6565b600160ff196005541617600555337f62e78cea01bee320cd4e420270b5ea74000d11b0c9f74754ebdbfc544b05a2588280a280f35b5034610167578060031936011261016757546040516001600160a01b039091168152602090f35b5034610167576020366003190112610167576004356103c66110a6565b6101f48111610407577f528d9479e9f9889a87a3c30c7f7ba537e5e59c4c85a37733b16e57c62df6130260406002548151908152836020820152a160025580f35b60405162461bcd60e51b8152602060048201526014602482015273084e4d2c8ceca7440cccaca40e8dede40d0d2ced60631b6044820152606490fd5b5034610167578060031936011261016757602060ff600554166040519015158152f35b503461016757602036600319011261016757610480610e62565b6104886110a6565b60405160208101906104ac8161049e8585610fe1565b03601f198101835282610efb565b51902090818352600860205260408320805480156105d257421061058d57600101805460ff81166105485760ff1916600117905582546001600160a01b0319166001600160a01b039190911690811783557f09bf35b7806e61e7baf86e6547c4221f69d130ccc0a19215d064685a89464a708380a27f608879471643fec8a3d053e61fed9b5bb710b0ae4b697d1678d92eb5ea6d00be8280a280f35b60405162461bcd60e51b815260206004820152601860248201527f4272696467653a20616c726561647920657865637574656400000000000000006044820152606490fd5b60405162461bcd60e51b815260206004820152601760248201527f4272696467653a2074696d656c6f636b206163746976650000000000000000006044820152606490fd5b60405162461bcd60e51b8152602060048201526012602482015271109c9a5919d94e881b9bdd081c5d595d595960721b6044820152606490fd5b503461016757806003193601126101675760206040516202a3008152f35b50346101675761063936610ea2565b610641611141565b61064c821515611036565b61271061065b60025484611078565b049083610668838561108b565b937f00000000000000000000000000000000000000000000000000000000000000006001600160a01b0316803b1561076157604051632770a7eb60e21b8152336004820152602481019290925282908290604490829084905af180156107565761073d575b505081610729575b6106e0600754611098565b9182600755604051938585526020850152604084015260608301527f33d0ca41553e53e9483d72252657d69d101e74ef8be9c6e7320bebb127236f5e339260808180030190a380f35b61073582600354611015565b6003556106d5565b8161074791610efb565b61075257835f6106cd565b8380fd5b6040513d84823e3d90fd5b8280fd5b50346101675760203660031901126101675760408091600435815260086020522060ff6001825492015416825191825215156020820152f35b50346101675780600319360112610167576107b76110a6565b60ff1960055416600555337f5db9ee0a495bf2e6ff9c91a7834c1ba4fdd244a5e8aa4e537bd38aeae4b073aa8280a280f35b5034610167576107f836610e78565b91906108026110f3565b61080a611141565b818452600660205261082360ff60408620541615610f95565b818452600660205260408420805460ff191660011790557f00000000000000000000000000000000000000000000000000000000000000006001600160a01b031692833b15610907576040516340c10f1960e01b81526001600160a01b03831660048201526024810182905285908181604481838a5af18015610756576108f2575b5050604080516001600160a01b039586168152602081019290925291909316927f384442b72b4d48d5c8b13f459bb942f6a9ab07e7a5ef53e8018e4057c373e94491819081015b0390a380f35b816108fc91610efb565b61090757845f6108a5565b8480fd5b50346101675780600319360112610167576020600454604051908152f35b50346101675780600319360112610167576020600354604051908152f35b50346101675780600319360112610167576020600254604051908152f35b50346101675780600319360112610167576040517f00000000000000000000000000000000000000000000000000000000000000006001600160a01b03168152602090f35b50346101675780600319360112610167576040517f00000000000000000000000000000000000000000000000000000000000000006001600160a01b03168152602090f35b503461016757602036600319011261016757610a09610e62565b610a116110a6565b604051610a268161049e602082019485610fe1565b5190206202a3004201804211610ac3576040516040810181811067ffffffffffffffff821117610aaf57916020917f849d919c6f7b8b0a1b6f784686f7a3a0516c4541a63eb31eac060ad7bdc950ec93604052818152600183820191878352868852600885526040882090518155019051151560ff80198354169116179055604051908152a280f35b634e487b7160e01b85526041600452602485fd5b634e487b7160e01b83526011600452602483fd5b503461016757610ae636610e78565b9190610af06110f3565b610af8611141565b8184526006602052610b1160ff60408620541615610f95565b6040516370a0823160e01b81523060048201527f00000000000000000000000000000000000000000000000000000000000000006001600160a01b03169390602081602481885afa80156103005782918791610c60575b5010610c1157828552600660209081526040808720805460ff191660011790555163a9059cbb60e01b81526001600160a01b03841660048201526024810183905292908360448189895af1928315610300577f384442b72b4d48d5c8b13f459bb942f6a9ab07e7a5ef53e8018e4057c373e94493610bec9188916102d15750610f49565b604080516001600160a01b0396871681526020810193909352941693819081016108ec565b60405162461bcd60e51b815260206004820152602160248201527f4272696467653a20696e73756666696369656e742055534454207265736572766044820152606560f81b6064820152608490fd5b9150506020813d602011610c91575b81610c7c60209383610efb565b81010312610c8d578190515f610b68565b8580fd5b3d9150610c6f565b5034610e5e576020366003190112610e5e57610cb3610e62565b610cbb6110a6565b6001600160a01b03811690610cd1821515610eb8565b600354906004549082610dc7575b81610d19575b507fdeb5099d7943aa2b4c1142e5d53d2f7636aa8f7bd130ec79816f151572bcdf459160409182519182526020820152a280f35b600485815560405163a9059cbb60e01b81526001600160a01b0390921690820152602481018290529160208380604481010381887f00000000000000000000000000000000000000000000000000000000000000006001600160a01b03165af1918215610dbc57610db46040937fdeb5099d7943aa2b4c1142e5d53d2f7636aa8f7bd130ec79816f151572bcdf459588916102d15750610f49565b915091610ce5565b6040513d87823e3d90fd5b5f6003557f00000000000000000000000000000000000000000000000000000000000000006001600160a01b0316803b15610e5e576040516340c10f1960e01b81526001600160a01b038316600482015260248101859052905f908290604490829084905af18015610e5357610e3e575b50610cdf565b610e4b9195505f90610efb565b5f935f610e38565b6040513d5f823e3d90fd5b5f80fd5b600435906001600160a01b0382168203610e5e57565b6060906003190112610e5e57600435906024356001600160a01b0381168103610e5e579060443590565b6040906003190112610e5e576004359060243590565b15610ebf57565b60405162461bcd60e51b81526020600482015260146024820152734272696467653a207a65726f206164647265737360601b6044820152606490fd5b90601f8019910116810190811067ffffffffffffffff821117610f1d57604052565b634e487b7160e01b5f52604160045260245ffd5b90816020910312610e5e57518015158103610e5e5790565b15610f5057565b60405162461bcd60e51b815260206004820152601c60248201527f4272696467653a2055534454207472616e73666572206661696c6564000000006044820152606490fd5b15610f9c57565b60405162461bcd60e51b815260206004820152601960248201527f4272696467653a20616c72656164792070726f636573736564000000000000006044820152606490fd5b6040808252600a908201526939b2ba2932b630bcb2b960b11b60608201526001600160a01b03909116602082015260800190565b9190820180921161102257565b634e487b7160e01b5f52601160045260245ffd5b1561103d57565b60405162461bcd60e51b8152602060048201526013602482015272109c9a5919d94e881e995c9bc8185b5bdd5b9d606a1b6044820152606490fd5b8181029291811591840414171561102257565b9190820391821161102257565b5f1981146110225760010190565b6001546001600160a01b031633036110ba57565b60405162461bcd60e51b8152602060048201526011602482015270213934b233b29d103737ba1037bbb732b960791b6044820152606490fd5b5f546001600160a01b0316330361110657565b60405162461bcd60e51b8152602060048201526013602482015272213934b233b29d103737ba103932b630bcb2b960691b6044820152606490fd5b60ff6005541661114d57565b60405162461bcd60e51b815260206004820152600e60248201526d109c9a5919d94e881c185d5cd95960921b6044820152606490fdfea2646970667358221220af1acd84ac42cf1a66f2ef1828247b1204319f82b26b20c74ebc9ad2f03d6cc964736f6c63430008210033","linkReferences":{}},"methodIdentifiers":{"TIMELOCK_DELAY()":"5ba1c1a9","collectedFeesUSDT()":"3af586e6","collectedFeesWVTT()":"38fd717d","depositNonce()":"de35f5cb","depositUSDT(uint256,bytes32)":"958ac210","depositWVTT(uint256,bytes32)":"5a083564","executeSetRelayer(address)":"5c82eda5","owner()":"8da5cb5b","pause()":"8456cb59","paused()":"5c975abb","processedWithdrawals(bytes32)":"bf49d631","protocolFeeBps()":"35659fb8","queueSetRelayer(address)":"2155ba3d","relayer()":"8406c079","releaseUSDT(bytes32,address,uint256)":"1a0517ff","releaseWVTT(bytes32,address,uint256)":"3f0fc48b","setFee(uint256)":"69fe0e2d","timelockActions(bytes32)":"4afb48d6","transferOwnership(address)":"f2fde38b","unpause()":"3f4ba83a","usdt()":"2f48ab7d","withdrawFees(address)":"164e68de","wvtt()":"29aec626"},"id":24}