{"abi":[{"type":"constructor","inputs":[{"name":"_bridge","type":"address","internalType":"address"}],"stateMutability":"nonpayable"},{"type":"function","name":"allowance","inputs":[{"name":"","type":"address","internalType":"address"},{"name":"","type":"address","internalType":"address"}],"outputs":[{"name":"","type":"uint256","internalType":"uint256"}],"stateMutability":"view"},{"type":"function","name":"approve","inputs":[{"name":"spender","type":"address","internalType":"address"},{"name":"amount","type":"uint256","internalType":"uint256"}],"outputs":[{"name":"","type":"bool","internalType":"bool"}],"stateMutability":"nonpayable"},{"type":"function","name":"balanceOf","inputs":[{"name":"","type":"address","internalType":"address"}],"outputs":[{"name":"","type":"uint256","internalType":"uint256"}],"stateMutability":"view"},{"type":"function","name":"bridge","inputs":[],"outputs":[{"name":"","type":"address","internalType":"address"}],"stateMutability":"view"},{"type":"function","name":"burn","inputs":[{"name":"from","type":"address","internalType":"address"},{"name":"amount","type":"uint256","internalType":"uint256"}],"outputs":[],"stateMutability":"nonpayable"},{"type":"function","name":"decimals","inputs":[],"outputs":[{"name":"","type":"uint8","internalType":"uint8"}],"stateMutability":"view"},{"type":"function","name":"mint","inputs":[{"name":"to","type":"address","internalType":"address"},{"name":"amount","type":"uint256","internalType":"uint256"}],"outputs":[],"stateMutability":"nonpayable"},{"type":"function","name":"name","inputs":[],"outputs":[{"name":"","type":"string","internalType":"string"}],"stateMutability":"view"},{"type":"function","name":"owner","inputs":[],"outputs":[{"name":"","type":"address","internalType":"address"}],"stateMutability":"view"},{"type":"function","name":"setBridge","inputs":[{"name":"_bridge","type":"address","internalType":"address"}],"outputs":[],"stateMutability":"nonpayable"},{"type":"function","name":"symbol","inputs":[],"outputs":[{"name":"","type":"string","internalType":"string"}],"stateMutability":"view"},{"type":"function","name":"totalSupply","inputs":[],"outputs":[{"name":"","type":"uint256","internalType":"uint256"}],"stateMutability":"view"},{"type":"function","name":"transfer","inputs":[{"name":"to","type":"address","internalType":"address"},{"name":"amount","type":"uint256","internalType":"uint256"}],"outputs":[{"name":"","type":"bool","internalType":"bool"}],"stateMutability":"nonpayable"},{"type":"function","name":"transferFrom","inputs":[{"name":"from","type":"address","internalType":"address"},{"name":"to","type":"address","internalType":"address"},{"name":"amount","type":"uint256","internalType":"uint256"}],"outputs":[{"name":"","type":"bool","internalType":"bool"}],"stateMutability":"nonpayable"},{"type":"function","name":"transferOwnership","inputs":[{"name":"newOwner","type":"address","internalType":"address"}],"outputs":[],"stateMutability":"nonpayable"},{"type":"event","name":"Approval","inputs":[{"name":"owner","type":"address","indexed":true,"internalType":"address"},{"name":"spender","type":"address","indexed":true,"internalType":"address"},{"name":"value","type":"uint256","indexed":false,"internalType":"uint256"}],"anonymous":false},{"type":"event","name":"BridgeUpdated","inputs":[{"name":"oldBridge","type":"address","indexed":true,"internalType":"address"},{"name":"newBridge","type":"address","indexed":true,"internalType":"address"}],"anonymous":false},{"type":"event","name":"OwnershipTransferred","inputs":[{"name":"previousOwner","type":"address","indexed":true,"internalType":"address"},{"name":"newOwner","type":"address","indexed":true,"internalType":"address"}],"anonymous":false},{"type":"event","name":"Transfer","inputs":[{"name":"from","type":"address","indexed":true,"internalType":"address"},{"name":"to","type":"address","indexed":true,"internalType":"address"},{"name":"value","type":"uint256","indexed":false,"internalType":"uint256"}],"anonymous":false}],"bytecode":{"object":"0x608034607e57601f61093a38819003918201601f19168301916001600160401b03831184841017608257808492602094604052833981010312607e57516001600160a01b03811690819003607e57600480546001600160a01b03199081163317909155600380549091169190911790556040516108a390816100978239f35b5f80fd5b634e487b7160e01b5f52604160045260245ffdfe60806040526004361015610011575f80fd5b5f3560e01c806306fdde0314610679578063095ea7b31461060057806318160ddd146105e457806323b872dd146104b5578063313ce5671461049a57806340c10f191461042d57806370a08231146103f55780638da5cb5b146103cd5780638dd148021461036557806395d89b41146102fe5780639dc29fac1461027a578063a9059cbb146101e6578063dd62ed3e14610196578063e78cea921461016e5763f2fde38b146100be575f80fd5b3461016a57602036600319011261016a576100d76106f5565b6100df6107f4565b6001600160a01b0316801561013057600454816001600160a01b0382167f8be0079c531659141344cd1fd0a4f28419497f9722a3daafe3b4186f6b6457e05f80a36001600160a01b03191617600455005b60405162461bcd60e51b8152602060048201526012602482015271575654543a207a65726f206164647265737360701b6044820152606490fd5b5f80fd5b3461016a575f36600319011261016a576003546040516001600160a01b039091168152602090f35b3461016a57604036600319011261016a576101af6106f5565b6101b761070b565b6001600160a01b039182165f908152600260209081526040808320949093168252928352819020549051908152f35b3461016a57604036600319011261016a576101ff6106f5565b60243590335f52600160205261021b8260405f20541015610721565b335f52600160205260405f2061023283825461076d565b905560018060a01b031690815f52600160205260405f2061025482825461078e565b90556040519081525f51602061084e5f395f51905f5260203392a3602060405160018152f35b3461016a57604036600319011261016a575f6102946106f5565b5f51602061084e5f395f51905f526020602435926102b061079b565b60018060a01b031692838552600182526102d08160408720541015610721565b83855260018252604085206102e682825461076d565b90556102f381865461076d565b8555604051908152a3005b3461016a575f36600319011261016a57604051604081019080821067ffffffffffffffff8311176103515761034d9160405260048152631dd5951560e21b6020820152604051918291826106cb565b0390f35b634e487b7160e01b5f52604160045260245ffd5b3461016a57602036600319011261016a5761037e6106f5565b6103866107f4565b6003546001600160a01b0391821691829082167faae9beddccf584528e87b66c6ff2563825c8a1433305b8a656e9b5f9bf3904995f80a36001600160a01b03191617600355005b3461016a575f36600319011261016a576004546040516001600160a01b039091168152602090f35b3461016a57602036600319011261016a576001600160a01b036104166106f5565b165f526001602052602060405f2054604051908152f35b3461016a57604036600319011261016a576104466106f5565b5f5f51602061084e5f395f51905f5260206024359361046361079b565b61046e85855461078e565b845560018060a01b031693848452600182526040842061048f82825461078e565b9055604051908152a3005b3461016a575f36600319011261016a57602060405160128152f35b3461016a57606036600319011261016a576104ce6106f5565b6104d661070b565b6044359160018060a01b031690815f5260016020526104fb8360405f20541015610721565b5f828152600260209081526040808320338452909152902054831161059f5760205f51602061084e5f395f51905f5291835f526002825260405f2060018060a01b0333165f52825260405f2061055286825461076d565b9055835f526001825260405f2061056a86825461076d565b905560018060a01b031693845f526001825260405f2061058b82825461078e565b9055604051908152a3602060405160018152f35b60405162461bcd60e51b815260206004820152601c60248201527f575654543a20696e73756666696369656e7420616c6c6f77616e6365000000006044820152606490fd5b3461016a575f36600319011261016a5760205f54604051908152f35b3461016a57604036600319011261016a576106196106f5565b335f8181526002602090815260408083206001600160a01b03909516808452948252918290206024359081905591519182527f8c5be1e5ebec7d5bd14f71427d1e84f3dd0314c0f7b2291e5b200ac8c7c3b92591a3602060405160018152f35b3461016a575f36600319011261016a57604051604081019080821067ffffffffffffffff8311176103515761034d91604052600b81526a15dc985c1c19590815951560aa1b6020820152604051918291825b602060409281835280519182918282860152018484015e5f828201840152601f01601f1916010190565b600435906001600160a01b038216820361016a57565b602435906001600160a01b038216820361016a57565b1561072857565b60405162461bcd60e51b815260206004820152601a60248201527f575654543a20696e73756666696369656e742062616c616e63650000000000006044820152606490fd5b9190820391821161077a57565b634e487b7160e01b5f52601160045260245ffd5b9190820180921161077a57565b6003546001600160a01b031633036107af57565b60405162461bcd60e51b815260206004820152601e60248201527f575654543a2063616c6c6572206973206e6f74207468652062726964676500006044820152606490fd5b6004546001600160a01b0316330361080857565b60405162461bcd60e51b815260206004820152601d60248201527f575654543a2063616c6c6572206973206e6f7420746865206f776e65720000006044820152606490fdfeddf252ad1be2c89b69c2b068fc378daa952ba7f163c4a11628f55a4df523b3efa2646970667358221220bd1828783e75f547d4756438654264310d73b5618f80eb0fdec369255aeffcdc64736f6c63430008210033","linkReferences":{}},"methodIdentifiers":{"allowance(address,address)":"dd62ed3e","approve(address,uint256)":"095ea7b3","balanceOf(address)":"70a08231","bridge()":"e78cea92","burn(address,uint256)":"9dc29fac","decimals()":"313ce567","mint(address,uint256)":"40c10f19","name()":"06fdde03","owner()":"8da5cb5b","setBridge(address)":"8dd14802","symbol()":"95d89b41","totalSupply()":"18160ddd","transfer(address,uint256)":"a9059cbb","transferFrom(address,address,uint256)":"23b872dd","transferOwnership(address)":"f2fde38b"},"id":25}